{
  "_format": "hh3-artifact-1",
  "contractName": "Guardian",
  "sourceName": "contracts/Guardian.sol",
  "abi": [
    {
      "inputs": [
        {
          "internalType": "address",
          "name": "_teleporter",
          "type": "address"
        },
        {
          "internalType": "uint256",
          "name": "_sourceBlockchainID",
          "type": "uint256"
        },
        {
          "internalType": "address",
          "name": "_authorizedSenderAddress",
          "type": "address"
        }
      ],
      "stateMutability": "nonpayable",
      "type": "constructor"
    },
    {
      "inputs": [],
      "name": "InvalidETHTransfer",
      "type": "error"
    },
    {
      "inputs": [],
      "name": "UnauthorizedCaller",
      "type": "error"
    },
    {
      "inputs": [],
      "name": "UnauthorizedSource",
      "type": "error"
    },
    {
      "anonymous": false,
      "inputs": [
        {
          "indexed": true,
          "internalType": "address",
          "name": "user",
          "type": "address"
        }
      ],
      "name": "MaliciousAddressRecorded",
      "type": "event"
    },
    {
      "stateMutability": "payable",
      "type": "fallback"
    },
    {
      "inputs": [],
      "name": "authorizedSenderAddress",
      "outputs": [
        {
          "internalType": "address",
          "name": "",
          "type": "address"
        }
      ],
      "stateMutability": "view",
      "type": "function"
    },
    {
      "inputs": [
        {
          "internalType": "address",
          "name": "user",
          "type": "address"
        }
      ],
      "name": "isMalicious",
      "outputs": [
        {
          "internalType": "bool",
          "name": "",
          "type": "bool"
        }
      ],
      "stateMutability": "view",
      "type": "function"
    },
    {
      "inputs": [
        {
          "internalType": "bytes32",
          "name": "",
          "type": "bytes32"
        },
        {
          "internalType": "address",
          "name": "sourceAddress",
          "type": "address"
        },
        {
          "internalType": "bytes",
          "name": "messageBody",
          "type": "bytes"
        }
      ],
      "name": "receiveTeleporterMessage",
      "outputs": [],
      "stateMutability": "nonpayable",
      "type": "function"
    },
    {
      "inputs": [],
      "name": "sourceBlockchainID",
      "outputs": [
        {
          "internalType": "uint256",
          "name": "",
          "type": "uint256"
        }
      ],
      "stateMutability": "view",
      "type": "function"
    },
    {
      "inputs": [],
      "name": "teleporter",
      "outputs": [
        {
          "internalType": "address",
          "name": "",
          "type": "address"
        }
      ],
      "stateMutability": "view",
      "type": "function"
    },
    {
      "stateMutability": "payable",
      "type": "receive"
    }
  ],
  "bytecode": "0x60e060405234801561000f575f5ffd5b506040516104e23803806104e283398101604081905261002e916100b4565b6001600160a01b03831661005557604051635c427cd960e01b815260040160405180910390fd5b6001600160a01b03811661007c57604051635cfb0e7f60e01b815260040160405180910390fd5b6001600160a01b0392831660805260a0919091521660c0526100ed565b80516001600160a01b03811681146100af575f5ffd5b919050565b5f5f5f606084860312156100c6575f5ffd5b6100cf84610099565b9250602084015191506100e460408501610099565b90509250925092565b60805160a05160c0516103be6101245f395f818161012201526101fb01525f609501525f818161016d01526101bb01526103be5ff3fe60806040526004361061004d575f3560e01c806329b7b3fd146100845780639c02514a146100ca578063b009ebdf14610111578063b3ff9f491461015c578063c868efaa1461018f5761006b565b3661006b576040516325697fd360e01b815260040160405180910390fd5b6040516325697fd360e01b815260040160405180910390fd5b34801561008f575f5ffd5b506100b77f000000000000000000000000000000000000000000000000000000000000000081565b6040519081526020015b60405180910390f35b3480156100d5575f5ffd5b506101016100e43660046102e1565b6001600160a01b03165f9081526020819052604090205460ff1690565b60405190151581526020016100c1565b34801561011c575f5ffd5b506101447f000000000000000000000000000000000000000000000000000000000000000081565b6040516001600160a01b0390911681526020016100c1565b348015610167575f5ffd5b506101447f000000000000000000000000000000000000000000000000000000000000000081565b34801561019a575f5ffd5b506101ae6101a9366004610303565b6101b0565b005b336001600160a01b037f000000000000000000000000000000000000000000000000000000000000000016146101f957604051635c427cd960e01b815260040160405180910390fd5b7f00000000000000000000000000000000000000000000000000000000000000006001600160a01b0316836001600160a01b03161461024b57604051635cfb0e7f60e01b815260040160405180910390fd5b5f610258828401846102e1565b6001600160a01b0381165f9081526020819052604090205490915060ff166102c3576001600160a01b0381165f81815260208190526040808220805460ff19166001179055517f79cfd728bda5836a52b77863b15c8d66f7b6a5f5ac37c9853dc5536c9d2804989190a25b5050505050565b6001600160a01b03811681146102de575f5ffd5b50565b5f602082840312156102f1575f5ffd5b81356102fc816102ca565b9392505050565b5f5f5f5f60608587031215610316575f5ffd5b843593506020850135610328816102ca565b9250604085013567ffffffffffffffff811115610343575f5ffd5b8501601f81018713610353575f5ffd5b803567ffffffffffffffff811115610369575f5ffd5b87602082840101111561037a575f5ffd5b94979396506020019450505056fea2646970667358221220b7a0cdab07c8cc0c031a9083e674dbcc62720ae2d868dd29ac94844571ff728064736f6c634300081c0033",
  "linkReferences": {},
  "deployedLinkReferences": {},
  "immutableReferences": {
    "21": [
      {
        "length": 32,
        "start": 365
      },
      {
        "length": 32,
        "start": 443
      }
    ],
    "23": [
      {
        "length": 32,
        "start": 149
      }
    ],
    "25": [
      {
        "length": 32,
        "start": 290
      },
      {
        "length": 32,
        "start": 507
      }
    ]
  },
  "inputSourceName": "project/contracts/Guardian.sol",
  "buildInfoId": "solc-0_8_28-b39f847558ed94d4f080f4ef88bfae4c44d83134"
}