{
  "_format": "hh3-artifact-1",
  "contractName": "FunctionsConsumer",
  "sourceName": "contracts/FunctionConsumer.sol",
  "abi": [
    {
      "inputs": [
        {
          "internalType": "address",
          "name": "router",
          "type": "address"
        }
      ],
      "stateMutability": "nonpayable",
      "type": "constructor"
    },
    {
      "inputs": [],
      "name": "EmptyArgs",
      "type": "error"
    },
    {
      "inputs": [],
      "name": "EmptySource",
      "type": "error"
    },
    {
      "inputs": [],
      "name": "NoInlineSecrets",
      "type": "error"
    },
    {
      "inputs": [],
      "name": "OnlyRouterCanFulfill",
      "type": "error"
    },
    {
      "anonymous": false,
      "inputs": [
        {
          "indexed": true,
          "internalType": "address",
          "name": "maliciousUser",
          "type": "address"
        }
      ],
      "name": "CrossChainMessageSent",
      "type": "event"
    },
    {
      "anonymous": false,
      "inputs": [
        {
          "indexed": true,
          "internalType": "address",
          "name": "from",
          "type": "address"
        },
        {
          "indexed": true,
          "internalType": "address",
          "name": "to",
          "type": "address"
        }
      ],
      "name": "OwnershipTransferRequested",
      "type": "event"
    },
    {
      "anonymous": false,
      "inputs": [
        {
          "indexed": true,
          "internalType": "address",
          "name": "from",
          "type": "address"
        },
        {
          "indexed": true,
          "internalType": "address",
          "name": "to",
          "type": "address"
        }
      ],
      "name": "OwnershipTransferred",
      "type": "event"
    },
    {
      "anonymous": false,
      "inputs": [
        {
          "indexed": true,
          "internalType": "bytes32",
          "name": "id",
          "type": "bytes32"
        }
      ],
      "name": "RequestFulfilled",
      "type": "event"
    },
    {
      "anonymous": false,
      "inputs": [
        {
          "indexed": true,
          "internalType": "bytes32",
          "name": "id",
          "type": "bytes32"
        }
      ],
      "name": "RequestSent",
      "type": "event"
    },
    {
      "anonymous": false,
      "inputs": [
        {
          "indexed": true,
          "internalType": "bytes32",
          "name": "requestId",
          "type": "bytes32"
        },
        {
          "indexed": true,
          "internalType": "address",
          "name": "user",
          "type": "address"
        }
      ],
      "name": "RequestSent",
      "type": "event"
    },
    {
      "anonymous": false,
      "inputs": [
        {
          "indexed": true,
          "internalType": "bytes32",
          "name": "requestId",
          "type": "bytes32"
        },
        {
          "indexed": true,
          "internalType": "address",
          "name": "user",
          "type": "address"
        },
        {
          "indexed": false,
          "internalType": "bytes",
          "name": "response",
          "type": "bytes"
        },
        {
          "indexed": false,
          "internalType": "bytes",
          "name": "err",
          "type": "bytes"
        }
      ],
      "name": "ResponseReceived",
      "type": "event"
    },
    {
      "inputs": [],
      "name": "acceptOwnership",
      "outputs": [],
      "stateMutability": "nonpayable",
      "type": "function"
    },
    {
      "inputs": [
        {
          "internalType": "bytes32",
          "name": "",
          "type": "bytes32"
        }
      ],
      "name": "activeRequests",
      "outputs": [
        {
          "internalType": "address",
          "name": "",
          "type": "address"
        }
      ],
      "stateMutability": "view",
      "type": "function"
    },
    {
      "inputs": [],
      "name": "contentContractAddress",
      "outputs": [
        {
          "internalType": "address",
          "name": "",
          "type": "address"
        }
      ],
      "stateMutability": "view",
      "type": "function"
    },
    {
      "inputs": [],
      "name": "destinationBlockchainID",
      "outputs": [
        {
          "internalType": "uint256",
          "name": "",
          "type": "uint256"
        }
      ],
      "stateMutability": "view",
      "type": "function"
    },
    {
      "inputs": [],
      "name": "donId",
      "outputs": [
        {
          "internalType": "bytes32",
          "name": "",
          "type": "bytes32"
        }
      ],
      "stateMutability": "view",
      "type": "function"
    },
    {
      "inputs": [],
      "name": "guardianAddress",
      "outputs": [
        {
          "internalType": "address",
          "name": "",
          "type": "address"
        }
      ],
      "stateMutability": "view",
      "type": "function"
    },
    {
      "inputs": [
        {
          "internalType": "bytes32",
          "name": "requestId",
          "type": "bytes32"
        },
        {
          "internalType": "bytes",
          "name": "response",
          "type": "bytes"
        },
        {
          "internalType": "bytes",
          "name": "err",
          "type": "bytes"
        }
      ],
      "name": "handleOracleFulfillment",
      "outputs": [],
      "stateMutability": "nonpayable",
      "type": "function"
    },
    {
      "inputs": [],
      "name": "jsSource",
      "outputs": [
        {
          "internalType": "string",
          "name": "",
          "type": "string"
        }
      ],
      "stateMutability": "view",
      "type": "function"
    },
    {
      "inputs": [],
      "name": "lastError",
      "outputs": [
        {
          "internalType": "bytes",
          "name": "",
          "type": "bytes"
        }
      ],
      "stateMutability": "view",
      "type": "function"
    },
    {
      "inputs": [],
      "name": "lastRequestId",
      "outputs": [
        {
          "internalType": "bytes32",
          "name": "",
          "type": "bytes32"
        }
      ],
      "stateMutability": "view",
      "type": "function"
    },
    {
      "inputs": [],
      "name": "lastResponse",
      "outputs": [
        {
          "internalType": "bytes",
          "name": "",
          "type": "bytes"
        }
      ],
      "stateMutability": "view",
      "type": "function"
    },
    {
      "inputs": [],
      "name": "owner",
      "outputs": [
        {
          "internalType": "address",
          "name": "",
          "type": "address"
        }
      ],
      "stateMutability": "view",
      "type": "function"
    },
    {
      "inputs": [
        {
          "internalType": "bytes32",
          "name": "",
          "type": "bytes32"
        }
      ],
      "name": "requestFulfilled",
      "outputs": [
        {
          "internalType": "bool",
          "name": "",
          "type": "bool"
        }
      ],
      "stateMutability": "view",
      "type": "function"
    },
    {
      "inputs": [
        {
          "internalType": "address",
          "name": "_contentContractAddress",
          "type": "address"
        }
      ],
      "name": "setContentContractAddress",
      "outputs": [],
      "stateMutability": "nonpayable",
      "type": "function"
    },
    {
      "inputs": [
        {
          "internalType": "bytes32",
          "name": "_donId",
          "type": "bytes32"
        },
        {
          "internalType": "uint64",
          "name": "_subscriptionId",
          "type": "uint64"
        }
      ],
      "name": "setFunctionsConfig",
      "outputs": [],
      "stateMutability": "nonpayable",
      "type": "function"
    },
    {
      "inputs": [
        {
          "internalType": "string",
          "name": "_newSource",
          "type": "string"
        }
      ],
      "name": "setJsSource",
      "outputs": [],
      "stateMutability": "nonpayable",
      "type": "function"
    },
    {
      "inputs": [
        {
          "internalType": "address",
          "name": "_teleporter",
          "type": "address"
        },
        {
          "internalType": "uint256",
          "name": "_destinationBlockchainID",
          "type": "uint256"
        },
        {
          "internalType": "address",
          "name": "_guardianAddress",
          "type": "address"
        }
      ],
      "name": "setTeleporterConfig",
      "outputs": [],
      "stateMutability": "nonpayable",
      "type": "function"
    },
    {
      "inputs": [
        {
          "internalType": "address",
          "name": "user",
          "type": "address"
        }
      ],
      "name": "simulateMaliciousResponse",
      "outputs": [],
      "stateMutability": "nonpayable",
      "type": "function"
    },
    {
      "inputs": [
        {
          "internalType": "string",
          "name": "content",
          "type": "string"
        },
        {
          "internalType": "address",
          "name": "user",
          "type": "address"
        }
      ],
      "name": "startAnalysis",
      "outputs": [],
      "stateMutability": "nonpayable",
      "type": "function"
    },
    {
      "inputs": [],
      "name": "subscriptionId",
      "outputs": [
        {
          "internalType": "uint64",
          "name": "",
          "type": "uint64"
        }
      ],
      "stateMutability": "view",
      "type": "function"
    },
    {
      "inputs": [],
      "name": "teleporterAddress",
      "outputs": [
        {
          "internalType": "address",
          "name": "",
          "type": "address"
        }
      ],
      "stateMutability": "view",
      "type": "function"
    },
    {
      "inputs": [
        {
          "internalType": "address",
          "name": "to",
          "type": "address"
        }
      ],
      "name": "transferOwnership",
      "outputs": [],
      "stateMutability": "nonpayable",
      "type": "function"
    }
  ],
  "bytecode": "0x60a060405234801561000f575f5ffd5b5060405161209e38038061209e83398101604081905261002e91610197565b6001600160a01b03811660805233805f816100905760405162461bcd60e51b815260206004820152601860248201527f43616e6e6f7420736574206f776e657220746f207a65726f000000000000000060448201526064015b60405180910390fd5b5f80546001600160a01b0319166001600160a01b03848116919091179091558116156100bf576100bf816100ef565b5050506040518060600160405280602b8152602001612073602b91396004906100e8908261025c565b5050610316565b336001600160a01b038216036101475760405162461bcd60e51b815260206004820152601760248201527f43616e6e6f74207472616e7366657220746f2073656c660000000000000000006044820152606401610087565b600180546001600160a01b0319166001600160a01b038381169182179092555f8054604051929316917fed8889f560326eb138920d842192f0eb3dd22b4f139c87a2c57538e05bae12789190a350565b5f602082840312156101a7575f5ffd5b81516001600160a01b03811681146101bd575f5ffd5b9392505050565b634e487b7160e01b5f52604160045260245ffd5b600181811c908216806101ec57607f821691505b60208210810361020a57634e487b7160e01b5f52602260045260245ffd5b50919050565b601f82111561025757805f5260205f20601f840160051c810160208510156102355750805b601f840160051c820191505b81811015610254575f8155600101610241565b50505b505050565b81516001600160401b03811115610275576102756101c4565b6102898161028384546101d8565b84610210565b6020601f8211600181146102bb575f83156102a45750848201515b5f19600385901b1c1916600184901b178455610254565b5f84815260208120601f198516915b828110156102ea57878501518255602094850194600190920191016102ca565b508482101561030757868401515f19600387901b60f8161c191681555b50505050600190811b01905550565b608051611d3e6103355f395f818161032701526110980152611d3e5ff3fe608060405234801561000f575f5ffd5b506004361061013d575f3560e01c8063713b72b6116100b45780639eeb7dc2116100795780639eeb7dc2146102b4578063cf4d1739146102c7578063d8f4809a146102da578063e5385303146102ed578063f2fde38b14610300578063fc2a88c314610313575f5ffd5b8063713b72b61461023957806379ba50971461026b5780638da5cb5b146102735780638dbe7b9d146102835780639cde7ffc1461028c575f5ffd5b806329f0de3f1161010557806329f0de3f146101d957806341d3014d146101e1578063424685ea146101f857806342e444181461020b57806362747e421461021e57806365da652a14610226575f5ffd5b806309c1ba2e146101415780630ca76175146101715780630ef2a829146101865780632310167f14610199578063272808a3146101c4575b5f5ffd5b600354610154906001600160401b031681565b6040516001600160401b0390911681526020015b60405180910390f35b61018461017f366004611793565b61031c565b005b610184610194366004611819565b61039f565b6008546101ac906001600160a01b031681565b6040516001600160a01b039091168152602001610168565b6101cc61061e565b6040516101689190611891565b6101cc6106aa565b6101ea60065481565b604051908152602001610168565b6005546101ac906001600160a01b031681565b6007546101ac906001600160a01b031681565b6101cc6106b7565b6101846102343660046118a3565b6106c4565b61025b6102473660046118bc565b600a6020525f908152604090205460ff1681565b6040519015158152602001610168565b610184610751565b5f546001600160a01b03166101ac565b6101ea60025481565b6101ac61029a3660046118bc565b60096020525f90815260409020546001600160a01b031681565b6101846102c23660046118d3565b6107fa565b6101846102d536600461190c565b61082a565b6101846102e8366004611945565b610961565b6101846102fb3660046118a3565b610975565b61018461030e3660046118a3565b6109ff565b6101ea600b5481565b336001600160a01b037f000000000000000000000000000000000000000000000000000000000000000016146103655760405163c6829f8360e01b815260040160405180910390fd5b610370838383610a13565b60405183907f85e1543bf2f84fe80c6badbce3648c8539ad1df4d2b3d822938ca0538be727e6905f90a2505050565b6008546001600160a01b031633146104085760405162461bcd60e51b815260206004820152602160248201527f4f6e6c792063616c6c61626c6520627920436f6e74656e7420636f6e747261636044820152601d60fa1b60648201526084015b60405180910390fd5b6003546001600160401b03165f036104625760405162461bcd60e51b815260206004820152601e60248201527f46756e6374696f6e7320737562736372697074696f6e206e6f7420736574000060448201526064016103ff565b6104a06040805160e08101909152805f81526020015f81526020015f8152602001606081526020016060815260200160608152602001606081525090565b61053f5f5f600480546104b29061197e565b80601f01602080910402602001604051908101604052809291908181526020018280546104de9061197e565b80156105295780601f1061050057610100808354040283529160200191610529565b820191905f5260205f20905b81548152906001019060200180831161050c57829003601f168201915b505050505084610d2a909392919063ffffffff16565b6040805160018082528183019092525f91816020015b606081526020019060019003908161055557905050905083815f8151811061057f5761057f6119b6565b60209081029190910101526105948282610da7565b5f6105bd6105a184610dd0565b6003546002546001600160401b0390911690620493e090611094565b5f8181526009602052604080822080546001600160a01b0319166001600160a01b038916908117909155600b84905590519293509183917f91f0d67c2f27abd6cfc317e120d5e80b31e97b9926b65d3887e59402fb20adfb91a35050505050565b6004805461062b9061197e565b80601f01602080910402602001604051908101604052809291908181526020018280546106579061197e565b80156106a25780601f10610679576101008083540402835291602001916106a2565b820191905f5260205f20905b81548152906001019060200180831161068557829003601f168201915b505050505081565b600d805461062b9061197e565b600c805461062b9061197e565b6106cc611161565b5f604051806040016040528060098152602001684d414c4943494f555360b81b815250905061074d428360405160200161072292919091825260601b6bffffffffffffffffffffffff1916602082015260340190565b604051602081830303815290604052805190602001208260405180602001604052805f815250610a13565b5050565b6001546001600160a01b031633146107a45760405162461bcd60e51b815260206004820152601660248201527526bab9ba10313290383937b837b9b2b21037bbb732b960511b60448201526064016103ff565b5f8054336001600160a01b0319808316821784556001805490911690556040516001600160a01b0390921692909183917f8be0079c531659141344cd1fd0a4f28419497f9722a3daafe3b4186f6b6457e091a350565b610802611161565b6002919091556003805467ffffffffffffffff19166001600160401b03909216919091179055565b610832611161565b6001600160a01b0383166108885760405162461bcd60e51b815260206004820152601b60248201527f54656c65706f727465722061646472657373207265717569726564000000000060448201526064016103ff565b6001600160a01b0381166108de5760405162461bcd60e51b815260206004820152601960248201527f477561726469616e20616464726573732072657175697265640000000000000060448201526064016103ff565b815f0361092d5760405162461bcd60e51b815260206004820152601960248201527f496e76616c69642064657374696e6174696f6e20636861696e0000000000000060448201526064016103ff565b600580546001600160a01b039485166001600160a01b03199182161790915560069290925560078054919093169116179055565b610969611161565b600461074d8282611a15565b61097d611161565b6001600160a01b0381166109dd5760405162461bcd60e51b815260206004820152602160248201527f436f6e74656e7420636f6e7472616374206164647265737320726571756972656044820152601960fa1b60648201526084016103ff565b600880546001600160a01b0319166001600160a01b0392909216919091179055565b610a07611161565b610a10816111b5565b50565b5f838152600a602052604090205460ff1615610a655760405162461bcd60e51b8152602060048201526011602482015270105b1c9958591e48199d5b199a5b1b1959607a1b60448201526064016103ff565b5f838152600a60209081526040808320805460ff191660011790556009909152902080546001600160a01b031981169091556001600160a01b0316600c610aac8482611a15565b50600d610ab98382611a15565b50806001600160a01b0316847f5f4664c7831b65e32dd2441a9843b9220fb0a5f8a433bbe3b75fe2048def96bd8585604051610af6929190611acf565b60405180910390a38151158015610b5257506040805180820190915260098152684d414c4943494f555360b81b6020918201528351908401207ff89606ba3e2455bc9584b6e5f3b1c8d836698f6aa2f8e15b5af6abc90471f8de145b15610d24576005546001600160a01b0316610ba45760405162461bcd60e51b815260206004820152601260248201527115195b195c1bdc9d195c881b9bdd081cd95d60721b60448201526064016103ff565b6006545f03610bf55760405162461bcd60e51b815260206004820152601960248201527f44657374696e6174696f6e20636861696e206e6f74207365740000000000000060448201526064016103ff565b6007546001600160a01b0316610c4d5760405162461bcd60e51b815260206004820152601860248201527f477561726469616e2061646472657373206e6f7420736574000000000000000060448201526064016103ff565b604080516001600160a01b03831660208201525f910160408051601f198184030181529082905260055460065460075463c051d8d560e01b85529294506001600160a01b039182169363c051d8d593610cae9316905f908790600401611afc565b6020604051808303815f875af1158015610cca573d5f5f3e3d5ffd5b505050506040513d601f19601f82011682018060405250810190610cee9190611b37565b506040516001600160a01b038316907f216522e58086af05fc7a74a5df10baf01b1bf2b4a2f5f92923f9661e8f46f435905f90a2505b50505050565b80515f03610d4b576040516322ce3edd60e01b815260040160405180910390fd5b83836002811115610d5e57610d5e611b4e565b90816002811115610d7157610d71611b4e565b90525060408401828015610d8757610d87611b4e565b90818015610d9757610d97611b4e565b9052506060909301929092525050565b80515f03610dc85760405163fe936cb760e01b815260040160405180910390fd5b60a090910152565b60605f610dde61010061125d565b9050610e176040518060400160405280600c81526020016b31b7b232a637b1b0ba34b7b760a11b8152508261127d90919063ffffffff16565b8251610e35906002811115610e2e57610e2e611b4e565b829061129b565b6040805180820190915260088152676c616e677561676560c01b6020820152610e5f90829061127d565b6040830151610e76908015610e2e57610e2e611b4e565b604080518082019091526006815265736f7572636560d01b6020820152610e9e90829061127d565b6060830151610eae90829061127d565b60a08301515115610f39576040805180820190915260048152636172677360e01b6020820152610edf90829061127d565b610ee8816112d4565b5f5b8360a0015151811015610f2f57610f278460a001518281518110610f1057610f106119b6565b60200260200101518361127d90919063ffffffff16565b600101610eea565b50610f39816112f8565b60808301515115610ffc575f83602001516002811115610f5b57610f5b611b4e565b03610f795760405163a80d31f760e01b815260040160405180910390fd5b60408051808201909152600f81526e39b2b1b932ba39a637b1b0ba34b7b760891b6020820152610faa90829061127d565b610fc383602001516002811115610e2e57610e2e611b4e565b6040805180820190915260078152667365637265747360c81b6020820152610fec90829061127d565b6080830151610ffc908290611316565b60c0830151511561108c5760408051808201909152600981526862797465734172677360b81b602082015261103290829061127d565b61103b816112d4565b5f5b8360c00151518110156110825761107a8460c001518281518110611063576110636119b6565b60200260200101518361131690919063ffffffff16565b60010161103d565b5061108c816112f8565b515192915050565b5f5f7f00000000000000000000000000000000000000000000000000000000000000006001600160a01b031663461d27628688600188886040518663ffffffff1660e01b81526004016110eb959493929190611b62565b6020604051808303815f875af1158015611107573d5f5f3e3d5ffd5b505050506040513d601f19601f8201168201806040525081019061112b9190611b37565b60405190915081907f1131472297a800fee664d1d89cfa8f7676ff07189ecc53f80bbb5f4969099db8905f90a295945050505050565b5f546001600160a01b031633146111b35760405162461bcd60e51b815260206004820152601660248201527527b7363c9031b0b63630b1363290313c9037bbb732b960511b60448201526064016103ff565b565b336001600160a01b0382160361120d5760405162461bcd60e51b815260206004820152601760248201527f43616e6e6f74207472616e7366657220746f2073656c6600000000000000000060448201526064016103ff565b600180546001600160a01b0319166001600160a01b038381169182179092555f8054604051929316917fed8889f560326eb138920d842192f0eb3dd22b4f139c87a2c57538e05bae12789190a350565b6112656116bd565b80516112719083611323565b505f6020820152919050565b61128a826003835161139a565b815161129690826114b3565b505050565b81516112a89060c26114da565b5061074d82826040516020016112c091815260200190565b604051602081830303815290604052611316565b6112df816004611541565b6001816020018181516112f29190611bbe565b90525050565b611303816007611541565b6001816020018181516112f29190611bd1565b61128a826002835161139a565b60408051808201909152606081525f6020820152611342602083611be4565b1561136a57611352602083611be4565b61135d906020611bd1565b6113679083611bbe565b91505b60208084018390526040518085525f815290818401018181101561138c575f5ffd5b604052508290505b92915050565b6017816001600160401b0316116113c0578251610d249060e0600585901b1683176114da565b60ff816001600160401b0316116114005782516113e8906018611fe0600586901b16176114da565b508251610d24906001600160401b0383166001611558565b61ffff816001600160401b031611611441578251611429906019611fe0600586901b16176114da565b508251610d24906001600160401b0383166002611558565b63ffffffff816001600160401b03161161148457825161146c90601a611fe0600586901b16176114da565b508251610d24906001600160401b0383166004611558565b825161149b90601b611fe0600586901b16176114da565b508251610d24906001600160401b0383166008611558565b60408051808201909152606081525f60208201526114d3838384516115da565b9392505050565b60408051808201909152606081525f60208201528251515f6114fd826001611bbe565b90508460200151821061151e5761151e85611519836002611c03565b6116a6565b8451602083820101858153508051821115611537578181525b5093949350505050565b815161129690601f611fe0600585901b16176114da565b60408051808201909152606081525f60208201528351515f61157a8285611bbe565b905085602001518111156115975761159786611519836002611c03565b5f60016115a686610100611cfd565b6115b09190611bd1565b905086518281018783198251161781525080518311156115ce578281525b50959695505050505050565b60408051808201909152606081525f602082015282518211156115fb575f5ffd5b8351515f6116098483611bbe565b905085602001518111156116265761162686611519836002611c03565b85518051838201602001915f918085111561163f578482525b505050602086015b6020861061167f578051825261165e602083611bbe565b915061166b602082611bbe565b9050611678602087611bd1565b9550611647565b5181515f1960208890036101000a0190811690199190911617905250849150509392505050565b81516116b28383611323565b50610d2483826114b3565b60405180604001604052806116e46040518060400160405280606081526020015f81525090565b81526020015f81525090565b634e487b7160e01b5f52604160045260245ffd5b5f82601f830112611713575f5ffd5b8135602083015f5f6001600160401b03841115611732576117326116f0565b50604051601f19601f85018116603f011681018181106001600160401b0382111715611760576117606116f0565b604052838152905080828401871015611777575f5ffd5b838360208301375f602085830101528094505050505092915050565b5f5f5f606084860312156117a5575f5ffd5b8335925060208401356001600160401b038111156117c1575f5ffd5b6117cd86828701611704565b92505060408401356001600160401b038111156117e8575f5ffd5b6117f486828701611704565b9150509250925092565b80356001600160a01b0381168114611814575f5ffd5b919050565b5f5f6040838503121561182a575f5ffd5b82356001600160401b0381111561183f575f5ffd5b61184b85828601611704565b92505061185a602084016117fe565b90509250929050565b5f81518084528060208401602086015e5f602082860101526020601f19601f83011685010191505092915050565b602081525f6114d36020830184611863565b5f602082840312156118b3575f5ffd5b6114d3826117fe565b5f602082840312156118cc575f5ffd5b5035919050565b5f5f604083850312156118e4575f5ffd5b8235915060208301356001600160401b0381168114611901575f5ffd5b809150509250929050565b5f5f5f6060848603121561191e575f5ffd5b611927846117fe565b92506020840135915061193c604085016117fe565b90509250925092565b5f60208284031215611955575f5ffd5b81356001600160401b0381111561196a575f5ffd5b61197684828501611704565b949350505050565b600181811c9082168061199257607f821691505b6020821081036119b057634e487b7160e01b5f52602260045260245ffd5b50919050565b634e487b7160e01b5f52603260045260245ffd5b601f82111561129657805f5260205f20601f840160051c810160208510156119ef5750805b601f840160051c820191505b81811015611a0e575f81556001016119fb565b5050505050565b81516001600160401b03811115611a2e57611a2e6116f0565b611a4281611a3c845461197e565b846119ca565b6020601f821160018114611a74575f8315611a5d5750848201515b5f19600385901b1c1916600184901b178455611a0e565b5f84815260208120601f198516915b82811015611aa35787850151825560209485019460019092019101611a83565b5084821015611ac057868401515f19600387901b60f8161c191681555b50505050600190811b01905550565b604081525f611ae16040830185611863565b8281036020840152611af38185611863565b95945050505050565b8481526001600160a01b038416602082015282151560408201526080606082018190525f90611b2d90830184611863565b9695505050505050565b5f60208284031215611b47575f5ffd5b5051919050565b634e487b7160e01b5f52602160045260245ffd5b6001600160401b038616815260a060208201525f611b8360a0830187611863565b61ffff9590951660408301525063ffffffff92909216606083015260809091015292915050565b634e487b7160e01b5f52601160045260245ffd5b8082018082111561139457611394611baa565b8181038181111561139457611394611baa565b5f82611bfe57634e487b7160e01b5f52601260045260245ffd5b500690565b808202811582820484141761139457611394611baa565b6001815b6001841115611c5557808504811115611c3957611c39611baa565b6001841615611c4757908102905b60019390931c928002611c1e565b935093915050565b5f82611c6b57506001611394565b81611c7757505f611394565b8160018114611c8d5760028114611c9757611cb3565b6001915050611394565b60ff841115611ca857611ca8611baa565b50506001821b611394565b5060208310610133831016604e8410600b8410161715611cd6575081810a611394565b611ce25f198484611c1a565b805f1904821115611cf557611cf5611baa565b029392505050565b5f6114d38383611c5d56fea264697066735822122087b95ad1fe2e3555fd185c4a4e359ba66985447dca3e6b579cb1d8780102cb3664736f6c634300081c003372657475726e2046756e6374696f6e732e656e636f6465537472696e6728274d414c4943494f555327293b",
  "linkReferences": {},
  "deployedLinkReferences": {},
  "immutableReferences": {
    "17": [
      {
        "length": 32,
        "start": 807
      },
      {
        "length": 32,
        "start": 4248
      }
    ]
  },
  "inputSourceName": "project/contracts/FunctionConsumer.sol",
  "buildInfoId": "solc-0_8_28-2b597e63fe61492b63a5c1b2ffb5b8fc82cbcf4b"
}