{
  "_format": "hh3-artifact-1",
  "contractName": "Content",
  "sourceName": "contracts/Content.sol",
  "abi": [
    {
      "inputs": [
        {
          "internalType": "address",
          "name": "initialOwner",
          "type": "address"
        }
      ],
      "stateMutability": "nonpayable",
      "type": "constructor"
    },
    {
      "inputs": [
        {
          "internalType": "address",
          "name": "owner",
          "type": "address"
        }
      ],
      "name": "OwnableInvalidOwner",
      "type": "error"
    },
    {
      "inputs": [
        {
          "internalType": "address",
          "name": "account",
          "type": "address"
        }
      ],
      "name": "OwnableUnauthorizedAccount",
      "type": "error"
    },
    {
      "anonymous": false,
      "inputs": [
        {
          "indexed": true,
          "internalType": "address",
          "name": "user",
          "type": "address"
        },
        {
          "indexed": true,
          "internalType": "uint256",
          "name": "contentId",
          "type": "uint256"
        },
        {
          "indexed": false,
          "internalType": "string",
          "name": "content",
          "type": "string"
        }
      ],
      "name": "ContentSubmitted",
      "type": "event"
    },
    {
      "anonymous": false,
      "inputs": [
        {
          "indexed": true,
          "internalType": "address",
          "name": "previousOwner",
          "type": "address"
        },
        {
          "indexed": true,
          "internalType": "address",
          "name": "newOwner",
          "type": "address"
        }
      ],
      "name": "OwnershipTransferred",
      "type": "event"
    },
    {
      "stateMutability": "payable",
      "type": "fallback"
    },
    {
      "inputs": [],
      "name": "consumerAddress",
      "outputs": [
        {
          "internalType": "address",
          "name": "",
          "type": "address"
        }
      ],
      "stateMutability": "view",
      "type": "function"
    },
    {
      "inputs": [],
      "name": "contentCounter",
      "outputs": [
        {
          "internalType": "uint256",
          "name": "",
          "type": "uint256"
        }
      ],
      "stateMutability": "view",
      "type": "function"
    },
    {
      "inputs": [],
      "name": "owner",
      "outputs": [
        {
          "internalType": "address",
          "name": "",
          "type": "address"
        }
      ],
      "stateMutability": "view",
      "type": "function"
    },
    {
      "inputs": [],
      "name": "renounceOwnership",
      "outputs": [],
      "stateMutability": "nonpayable",
      "type": "function"
    },
    {
      "inputs": [
        {
          "internalType": "address",
          "name": "_consumerAddress",
          "type": "address"
        }
      ],
      "name": "setConsumerAddress",
      "outputs": [],
      "stateMutability": "nonpayable",
      "type": "function"
    },
    {
      "inputs": [
        {
          "internalType": "string",
          "name": "_content",
          "type": "string"
        }
      ],
      "name": "submitContent",
      "outputs": [],
      "stateMutability": "nonpayable",
      "type": "function"
    },
    {
      "inputs": [
        {
          "internalType": "address",
          "name": "newOwner",
          "type": "address"
        }
      ],
      "name": "transferOwnership",
      "outputs": [],
      "stateMutability": "nonpayable",
      "type": "function"
    },
    {
      "stateMutability": "payable",
      "type": "receive"
    }
  ],
  "bytecode": "0x6080604052348015600e575f5ffd5b506040516106b63803806106b6833981016040819052602b9160b4565b806001600160a01b038116605857604051631e4fbdf760e01b81525f600482015260240160405180910390fd5b605f816065565b505060df565b5f80546001600160a01b038381166001600160a01b0319831681178455604051919092169283917f8be0079c531659141344cd1fd0a4f28419497f9722a3daafe3b4186f6b6457e09190a35050565b5f6020828403121560c3575f5ffd5b81516001600160a01b038116811460d8575f5ffd5b9392505050565b6105ca806100ec5f395ff3fe608060405260043610610073575f3560e01c8063dbc2d0421161004d578063dbc2d04214610159578063e6a9aba314610178578063efe2c8a41461019b578063f2fde38b146101ba576100b8565b806330a1adeb146100ef578063715018a6146101105780638da5cb5b14610124576100b8565b366100b85760405162461bcd60e51b815260206004820152601060248201526f115512081b9bdd081858d8d95c1d195960821b60448201526064015b60405180910390fd5b60405162461bcd60e51b815260206004820152600c60248201526b125b9d985b1a590818d85b1b60a21b60448201526064016100af565b3480156100fa575f5ffd5b5061010e61010936600461048b565b6101d9565b005b34801561011b575f5ffd5b5061010e61034e565b34801561012f575f5ffd5b505f546001600160a01b03165b6040516001600160a01b0390911681526020015b60405180910390f35b348015610164575f5ffd5b5060015461013c906001600160a01b031681565b348015610183575f5ffd5b5061018d60025481565b604051908152602001610150565b3480156101a6575f5ffd5b5061010e6101b53660046104f9565b610361565b3480156101c5575f5ffd5b5061010e6101d43660046104f9565b6103d3565b6001546001600160a01b03166102245760405162461bcd60e51b815260206004820152601060248201526f10dbdb9cdd5b595c881b9bdd081cd95d60821b60448201526064016100af565b806102615760405162461bcd60e51b815260206004820152600d60248201526c115b5c1d1e4818dbdb9d195b9d609a1b60448201526064016100af565b6002805460010190819055604051819033907f5d3e6381990f94c77321acd418d1ac1ddfc882794bb171af4e18bbc566c882c6906102a2908790879061054e565b60405180910390a3600154604051630ef2a82960e01b81526001600160a01b0390911690630ef2a829906102de90869086903390600401610569565b5f604051808303815f87803b1580156102f5575f5ffd5b505af1925050508015610306575060015b6103495760405162461bcd60e51b815260206004820152601460248201527310dbdb9cdd5b595c8818d85b1b0819985a5b195960621b60448201526064016100af565b505050565b610356610410565b61035f5f61043c565b565b610369610410565b6001600160a01b0381166103b15760405162461bcd60e51b815260206004820152600f60248201526e496e76616c6964206164647265737360881b60448201526064016100af565b600180546001600160a01b0319166001600160a01b0392909216919091179055565b6103db610410565b6001600160a01b03811661040457604051631e4fbdf760e01b81525f60048201526024016100af565b61040d8161043c565b50565b5f546001600160a01b0316331461035f5760405163118cdaa760e01b81523360048201526024016100af565b5f80546001600160a01b038381166001600160a01b0319831681178455604051919092169283917f8be0079c531659141344cd1fd0a4f28419497f9722a3daafe3b4186f6b6457e09190a35050565b5f5f6020838503121561049c575f5ffd5b823567ffffffffffffffff8111156104b2575f5ffd5b8301601f810185136104c2575f5ffd5b803567ffffffffffffffff8111156104d8575f5ffd5b8560208284010111156104e9575f5ffd5b6020919091019590945092505050565b5f60208284031215610509575f5ffd5b81356001600160a01b038116811461051f575f5ffd5b9392505050565b81835281816020850137505f828201602090810191909152601f909101601f19169091010190565b602081525f610561602083018486610526565b949350505050565b604081525f61057c604083018587610526565b905060018060a01b038316602083015294935050505056fea2646970667358221220c9a698e10172e7c5a095688e3fc22eb6b7e354c45b2a85d592aa1c961d6b722064736f6c634300081c0033",
  "linkReferences": {},
  "deployedLinkReferences": {},
  "immutableReferences": {},
  "inputSourceName": "project/contracts/Content.sol",
  "buildInfoId": "solc-0_8_28-e033912370070b4f91ab57e66998155f84d1f543"
}